:020000041000EA
:1000000090420020C1020010C5020010C70200107B
:10001000C9020010CB020010CD0200100000000049
:10002000000000000000000000000000CF020010EF
:100030000000000000000000D1020010D3020010F8
:1000400000000000000000000000000000000000B0
:1000500000000000000000000000000000000000A0
:100060000000000000000000000000000000000090
:100070000000000000000000000000000000000080
:100080000000000000000000000000000000000070
:100090000000000000000000000000000000000060
:1000A0000000000000000000000000000000000050
:1000B0000000000000000000000000000000000040
:1000C000D5020010D7020010D9020010DB02001088
:1000D000DD020010DF020010E1020010E302001058
:1000E000E5020010E7020010E9020010EB02001028
:1000F000ED020010EF020010F1020010F3020010F8
:10010000F5020010F7020010F9020010FB020010C7
:10011000FD020010000000000000000000000000D0
:1001200000000000000000000000000000000000CF
:1001300000000000000000000000000000000000BF
:1001400000000000000000000000000000000000AF
:10015000000000000000000000000000000000009F
:10016000000000000000000000000000000000008F
:10017000000000000000000000000000000000007F
:10018000000000000000000000000000FF0200105E
:100190000103001003030010050300100703001003
:1001A000090300100B0300100D0300100F030010D3
:1001B0001103001013030010050B001017030010AB
:1001C0000D0C00101B0300101D0300101F03001076
:1001D0002103001023030010250300102703001043
:1001E000290300102B0300102D0300102F03001013
:1001F000E30900103303001035030010370300102B
:10020000390300103B0300103D0300103F030010B2
:100210004103001043030010450300104703001082
:10022000490300104B0300104D0300104F03001052
:10023000510300105303001000F002F800F030F8F2
:100240000AA090E8000C82448344AAF10107DA4531
:1002500001D100F025F8AFF2090EBAE80F0013F053
:10026000010F18BFFB1A43F0010318475C1200008E
:100270006C120000103A24BF78C878C1FAD852072F
:1002800024BF30C830C144BF04680C60704778296F
:1002900000F08480002070471FB51FBD10B510BD51
:1002A00000F087FE1146FFF7F7FF00F0EFF900F0CE
:1002B000A5FE03B4FFF7F2FF03BC00F0ADFE0000A3
:1002C00027480047FEE7FEE7FEE7FEE7FEE7FEE71A
:1002D000FEE7FEE7FEE7FEE7FEE7FEE7FEE7FEE7F6
:1002E000FEE7FEE7FEE7FEE7FEE7FEE7FEE7FEE7E6
:1002F000FEE7FEE7FEE7FEE7FEE7FEE7FEE7FEE7D6
:10030000FEE7FEE7FEE7FEE7FEE7FEE7FEE7FEE7C5
:10031000FEE7FEE7FEE7FEE7FEE7FEE7FEE7FEE7B5
:10032000FEE7FEE7FEE7FEE7FEE7FEE7FEE7FEE7A5
:10033000FEE7FEE7FEE7FEE7FEE7FEE7FEE7FEE795
:10034000FEE7FEE7FEE7FEE7FEE7FEE7FEE7FEE785
:10035000FEE7FEE703480449044A054B70470000E6
:1003600039020010903A002090420020903E002078
:10037000903E00200FB41CB5074B06AA7B4469468B
:100380000090059800F0CBFD0020694600F0DAFDF2
:100390001CBC5DF814FB0000C50B000070B50446E2
:1003A0000D4621461068AFF300802188090502D56B
:1003B0000F4A7A4402E00E4A7A440E32002104F1D8
:1003C000240305E000F00F060009965D5E54491C09
:1003D0000028F7D120780023000704D5702D02D023
:1003E00009B1022311322046BDE8704000F038BD4B
:1003F000EA10000070477047704770470000000027
:10040000710000000000000071000000000000000A
:1004100000000000000000000000000000000000DC
:1004200000000000000000000000000000000000CC
:1004300000000000000000000000000000000000BC
:1004400000000000000000000000000000000000AC
:100450007048714908607148714908607048F03807
:10046000D0F8000140F080506D49F039C1F800012A
:100470000846D0F8100140F08050C1F8100108463D
:10048000D0F8200140F08050654930310860634861
:1004900064490860002048658865C8650866486644
:1004A0005E48810708608007C0685F4908434FF0D5
:1004B0008041C8605D485E49086058485D490860F1
:1004C000C01788635C495B4841635C4941625C4991
:1004D00001635C4901625C49C1654FF0FF305549D9
:1004E00088644E4859490860C0178863000C8862C8
:1004F0000020886156495548C1624FF0A041C16152
:100500000F210163052101620021416341624FF423
:1005100060204E49086102214C48C165C0044B4926
:100520008865002088644B480864002008653B48C3
:10053000494908604948C863C04388630106464882
:1005400041634FF0085141624FF0FF3042498862E9
:100550000020886142488864304842490860C017DA
:10056000886341493F480162022141626FF0404087
:100570003C4988653D493B48C1653D4839498864E7
:1005800026483C490860C01788630006886200203E
:1005900088614FF6FF713748016348F688010162B0
:1005A0004FF400303349086545F6FF708865FF2138
:1005B0003048C1651948304908603048486040F209
:1005C0002130C8601548810708604FF0C0500865A9
:1005D00000BF4FF08040006E00F480100028F8D07B
:1005E00027488107886700BF4FF08040806F00F088
:1005F00080500028F8D00820C1064860002088609C
:1006000020480B498031086004481F4908600B20CE
:10061000486070470000001008ED00E0A1AA558571
:10062000F01000400030004000E00304270001000B
:100630003C01004000000840FF0FFF00CC0CCC0044
:100640000000FFF00000CCC0000F3C00001008408C
:10065000F00F00F00F8601000020084000FF3F006F
:10066000FF00C03F0030084000202002C0FC03F023
:100670000080173E00400840005000406103000425
:100680000108005807000110004004E0ADF6080D15
:10069000FFF7DEFE00F088FA00F0E0F800F0D4F991
:1006A00058A15A48FFF766FE584800F075FBC4B2DF
:1006B00000222146554800F01FF955A15348FFF785
:1006C00059FE524800F068FBC4B2002221464F4850
:1006D00000F012F95249032000F0B4FA90E000BF94
:1006E00045F255504FF0402108604000086000BFBF
:1006F0000DF60401454800F04CF90028EED04348BF
:10070000007841282CD10020464908603F484078B5
:100710004549086045480A46126800EBC2214FF47B
:10072000006201A800F057FB12E03E48006801AAF1
:1007300002EBC0118022354800F04DFB00228021E1
:10074000324800F0D9F837480068401C3549086045
:10075000344800681028E8DB0020354908804FE065
:100760002A48007842280FD13248426832A12748EF
:10077000FFF700FE254800F00FFBC4B2002221461F
:10078000224800F0B9F83BE020480078522804D114
:100790004FF480302A49886032E01C4800785428A1
:1007A0002ED11A484078302810D1032000F01AFAD0
:1007B00024A11648FFF7DEFD144800F0EDFAC4B29C
:1007C00000222146114800F097F819E00F484078C0
:1007D000322815D10D4880781F4991FBF0F421464D
:1007E000032000F02FFA0AA10848FFF7C3FD0748CD
:1007F00000F0D2FAC4B200222146044800F07CF88E
:100800006DE7000053544152540A0D0020000020AF
:1008100054696D65206973207365740A0D000000CA
:10082000400D030000000020040000202C020020E6
:10083000100000200050004025580A0D0000000064
:100840000040084050574D2069732064697361620D
:100850006C650A0D0000000040420F0000206F4947
:1008600008706F48810708608007006940F0400009
:1008700008616C486C4908600B206C494862002094
:1008800088626020C8621020886340F201300863EB
:100890008007C06840F400008904C8606448C1F85B
:1008A00030014FF47A70634988600120C8606C2081
:1008B00000F01F02012191404209920002F1E02262
:1008C000C2F8001100BF704710B50A460FE010F8DB
:1008D000013B594C647883EA0401574B1B78574C11
:1008E000645C6340544C6370554B5B5C2370131E17
:1008F000A2F10102EBD110BDF0B507460E46154638
:100900004A48006B20F40070484908631DB1314625
:100910003846FFF7D9FF002414E000BF4348806940
:1009200000F080000028F9D0385D4049086000BF21
:1009300045F255504FF0402108604000086000BF6C
:10094000601CC4B2B442E8DBADB100BF3748806977
:1009500000F080000028F9D037484078334908601B
:1009600000BF3248806900F080000028F9D032488A
:1009700000782E49086000BF2C48806900F008000C
:100980000028F9D12948006B40F40070274908631A
:10099000F0BD70B505460C4620480078F8B12548F2
:1009A000406D00F00200D0B11C480078207000209B
:1009B0001A49087022782349284600F00CFA4FF6AD
:1009C000FF701D49088021782846FFF77DFF1A48EF
:1009D000008808B9012070BD4FF0FF30FBE7002010
:1009E000F9E71249C96B01F01001B1B10F4909686B
:1009F000C8B21049496D01F0020111B10021074A46
:100A0000117006490A780978491C044B19700D4980
:100A100088540021074A1160516570470C0000207E
:100A2000A1AA5585010001D088010040009009402D
:100A30002700010000A008400E000020A0130010B5
:100A4000A01200102001002010B54C4A93071A6034
:100A50009207D26842F08072DA60494A494B1A60C4
:100A60001A07126942F400021B071A610022464B62
:100A70005A6027229A6001229A65DA605E2202F0AB
:100A80001F040123A3405409A40004F1E024C4F886
:100A9000003100BF394A3D4B1A6048F260029A604B
:100AA0004FF07042C3F83C2101225A60002100201F
:100AB00013E000F13C02012303EB0222334B1A61E5
:100AC00000BF324A526902F00102002AF9D02F4ACF
:100AD0009269C2F30B021144401C0428E9DB89101F
:100AE00000222B4B1A60294A926861F31F52274B50
:100AF0009A603F22C3F8242125225A600122224B0A
:100B0000DA6010BD18B54FF48002224B9A601E4A7D
:100B1000526D22F001021C4B5A651C491C311C4AC3
:100B20000C3A12681C4B1A60002015E051F8202086
:100B300000921A4B009A23F81020194A1288B2F535
:100B4000806F08DABDF80020164B03EBC023144C6D
:100B5000248823F81420401C0628E7DB104A12885A
:100B6000B2F5806F04DA0E4A1288521C0C4B1A80C0
:100B70004FF48002074BDA6018BD0000A1AA55852A
:100B80004F0001003401004000B0084000A00A40BE
:100B90003CA10A4000400840140000202002002030
:100BA000100000202C02002010B557488107086073
:100BB0008007C06840F08060C860544854490860AD
:100BC00000205449C8600860486002208865524887
:100BD000006888604FF4606048628862602000F0BE
:100BE0007FF810BD10B50446032C0DD1602000F035
:100BF00082F800204749C86008604FF48870486355
:100C0000602000F06DF800BF00BF10BD10B50020DF
:100C100040494865084680684049096808443F499A
:100C20000860084600683E4988420AD1F0213D48E4
:100C30000163002101620320FFF7D4FF0020374940
:100C4000086010BD2DE9F04781460C46B9F1030F4D
:100C500021D1602000F04FF8F0213248016380215B
:100C600001622C488460204600F009FA0746002201
:100C70002D4B00F017FA054600F0D4F925494861DC
:100C80004FF410604863002008600120C8606020B5
:100C900000F026F800BF00BFBDE8F087012804D0AF
:100CA00002280BD003281AD111E0642903DB632248
:100CB000184B1A6101E0174A116100BF642903DB78
:100CC0006322144B5A6101E0124A516100BF64294A
:100CD00003DB63220F4B9A6101E00E4A916170477A
:100CE00000F01F02012191404209920002F1E0222E
:100CF000C2F80011704700F01F02012191400B4A19
:100D0000430942F823107047A1AA55852700010026
:100D10003C01004000D00840180000201C000020CA
:100D200000E1F505004008400000E03F80E100E000
:100D30002DE9F0410E460446002020622046E1687D
:100D4000884730B3252805D0D4E901219047206A8F
:100D5000401CF2E7E168204600278847050018D0CC
:100D6000A5F14100192802D820354FF4006732461A
:100D7000294620462760FFF78AFA40B1012804D0AF
:100D8000F61D26F007060836D8E7361DD6E72846B2
:100D9000DAE7206ABDE8F08110B5431C02E010F8E4
:100DA000011B71B18107FAD14FF0013202C88C1AD0
:100DB0008C4314EAC211F9D0C01A0A0603D0C01E2F
:100DC00010BDC01A10BD0A0401D0801E10BD09025A
:100DD000FCD0401E10BD032A40F2308010F0030CFE
:100DE00000F0158011F8013BBCF1020F624498BF7E
:100DF00011F801CB00F8013B38BF11F8013BA2F11B
:100E0000040298BF00F801CB38BF00F8013B11F095
:100E1000030300F09C80083AC0F0088051F8043BBE
:100E2000083A51F804CBA0E80810F5E7121D5CBFA2
:100E300051F8043B40F8043BAFF30080D20724BFD5
:100E400011F8013B11F801CB48BF11F8012B24BF69
:100E500000F8013B00F801CB48BF00F8012B7047B8
:100E60002DE9F0470D4699469246044600F12408C4
:100E70000168880604D5E06921F01001216000E0D6
:100E80000120A84201DD471B00E00027A1697A1973
:100E900002EB0900081AA0612078C00602D420469F
:100EA000AFF30080002608E0D4E901211AF806001B
:100EB0009047206A401C761C20624E45F4DB207867
:100EC000C0060AD52046AFF3008006E0D4E9012130
:100ED00030209047206A401C2062381EA7F101078D
:100EE000F4DC07E0D4E9012118F805009047206AF6
:100EF000401C2062281EA5F10105F3DC2046AFF35B
:100F000000802078000602D50220BDE8F08701208D
:100F1000FBE7000001694A1C02610878704700B5D0
:100F20008FB0CDE901310021059105497944CDE922
:100F3000031011466846FFF7FBFE0FB000BD00002E
:100F4000E5FFFFFF0A6802F8010B0A60704710B561
:100F5000203AC0F00B80B1E81850203AA0E81850B1
:100F6000B1E81850A0E81850BFF4F5AF5FEA027C72
:100F700024BFB1E81850A0E8185044BF18C918C0E1
:100F8000BDE810405FEA827C24BF51F8043B40F882
:100F9000043B08BF7047D20728BF31F8023B48BF67
:100FA00011F8012B28BF20F8023B48BF00F8012BA5
:100FB0007047754600F02CF8AE460500694653466A
:100FC00020F00700854618B020B5FFF7C3F9BDE84B
:100FD00020404FF000064FF000074FF000084FF0A0
:100FE000000B21F00701AC46ACE8C009ACE8C00931
:100FF000ACE8C009ACE8C0098D46704710B504469E
:10100000AFF300802046BDE81040FFF752B9000062
:10101000004870472C3A002001491820ABBEFEE77B
:10102000260002004FEA1153A3F58063D3F11E039B
:10103000A8BFD3F1200C08DB4FF0004242EAC122E6
:1010400052EA505232FA03F0704709420BD4102B87
:10105000C4BF0020704703F5787CBCF1FF3F05D08A
:101060004FF0FF3070474FF00000704770B500F050
:10107000C3F800BF4992248000207047F0E7B0FA1F
:1010800080F310FA03F10AD0C3F11D0303F5806366
:101090004FEA41504FEA035202EBD12170474FF023
:1010A00000007047DFF848C170B51CEA111E1EBF72
:1010B0001CEA13159EEA0C0F95EA0C0F00F06F80E6
:1010C00081EA030423EA4C134EEAD47E21EA4C1150
:1010D00041F4801143F48013AE44A1FB024CA0FB09
:1010E0000365AEF17F7E361955EB0C05A1FB034C71
:1010F0004CF10003A0FB021C16EB0C06654153F1FA
:101100000003094218BF46F0010613F4007F0BD11B
:101110004FEA03314FEA0530340341EA155140EA02
:1011200016506FF003020AE04FEAC3214FEAC520D0
:10113000F40241EA555140EA56506FF0020202EBC8
:101140002E4201EB025585EACE710AD05FEA440CCB
:1011500018BF24F0004450F1000041F1000120EAE2
:10116000D47040F2FE7C624500D270BDA84214BF2C
:101170004FF080444FF04044002E08BF0024BEF1E1
:10118000806FA8BFA1F1C041BDE8704080F28280AD
:101190004FF0000001F1C04101F0004170479EEAAC
:1011A0000C0F0CEA131518BF95EA0C0F06D04FF080
:1011B000000081EA030E0EF0004170BD00F01CF843
:1011C0008900013E00F007B800F009B84FEA430C6F
:1011D0005FEA5C5C08D081EA030100F05BB84FEA8B
:1011E000410C5FEA5C5CF6D14FF0000001497047AA
:1011F0000000FF070000F87F0EF1020E2EF0030E34
:101200005EF8046B364205D4012A43EB030515F55D
:10121000001F12D8012841EB010C1CF5001F0CD84F
:101220000ED14FEAD17C15F5001F0CEB4C0C0CF1E4
:10123000020C08BF4CEBD37C04E04FF0080C01E03B
:101240004FEAD37C0CEB4C0526FA05F606F00706B0
:10125000B6F1040C06D20EEB860CBDE870404CF0E3
:10126000010C6047DFE80CF0090B02024FF000416F
:101270004FF00000A1F5002170BD1946104601286D
:1012800051EB010418BFD4F5001484BF002001F015
:10129000004170BD0808A0F500114FEA3101704708
:1012A00000C0C101C30302C2C60607C705C5C40406
:1012B000CC0C0DCD0FCFCE0E0ACACB0BC90908C876
:1012C000D81819D91BDBDA1A1EDEDF1FDD1D1CDC66
:1012D00014D4D515D71716D6D21213D311D1D010D6
:1012E000F03031F133F3F23236F6F737F53534F4C6
:1012F0003CFCFD3DFF3F3EFEFA3A3BFB39F9F83836
:1013000028E8E929EB2B2AEAEE2E2FEF2DEDEC2C25
:10131000E42425E527E7E62622E2E323E12120E095
:10132000A06061A163A3A26266A6A767A56564A485
:101330006CACAD6DAF6F6EAEAA6A6BAB69A9A868F5
:1013400078B8B979BB7B7ABABE7E7FBF7DBDBC7CE5
:10135000B47475B577B7B67672B2B373B17170B055
:101360005090915193535292965657975595945445
:101370009C5C5D9D5F9F9E5E5A9A9B5B99595898B5
:10138000884849894B8B8A4A4E8E8F4F8D4D4C8CA5
:101390004484854587474686824243834181804015
:1013A00000C1814001C0804101C0804100C1814035
:1013B00001C0804100C1814000C1814001C0804125
:1013C00001C0804100C1814000C1814001C0804115
:1013D00000C1814001C0804101C0804100C1814005
:1013E00001C0804100C1814000C1814001C08041F5
:1013F00000C1814001C0804101C0804100C18140E5
:1014000000C1814001C0804101C0804100C18140D4
:1014100001C0804100C1814000C1814001C08041C4
:1014200001C0804100C1814000C1814001C08041B4
:1014300000C1814001C0804101C0804100C18140A4
:1014400000C1814001C0804101C0804100C1814094
:1014500001C0804100C1814000C1814001C0804184
:1014600000C1814001C0804101C0804100C1814074
:1014700001C0804100C1814000C1814001C0804164
:1014800001C0804100C1814000C1814001C0804154
:1014900000C1814001C0804101C0804100C1814044
:1014A000303132333435363738394142434445469A
:1014B0004030580030313233343536373839616294
:1014C0006364656640307800D81400100000002086
:1014D0002000000074020010000000000000000066
:1014E00000000000000000000000000000000000FC
:0814F00040420F000000000063
:0400000510000239AC
:00000001FF
